{
  "_format": "hh-sol-artifact-1",
  "contractName": "VoteBlock",
  "sourceName": "contracts/VoteBlock.sol",
  "abi": [
    {
      "inputs": [],
      "stateMutability": "nonpayable",
      "type": "constructor"
    },
    {
      "inputs": [
        {
          "internalType": "uint256",
          "name": "",
          "type": "uint256"
        }
      ],
      "name": "candidates",
      "outputs": [
        {
          "internalType": "string",
          "name": "name",
          "type": "string"
        },
        {
          "internalType": "uint8",
          "name": "voteCount",
          "type": "uint8"
        }
      ],
      "stateMutability": "view",
      "type": "function"
    },
    {
      "inputs": [],
      "name": "getCandidateCount",
      "outputs": [
        {
          "internalType": "uint256",
          "name": "",
          "type": "uint256"
        }
      ],
      "stateMutability": "view",
      "type": "function"
    },
    {
      "inputs": [],
      "name": "totalVotes",
      "outputs": [
        {
          "internalType": "uint256",
          "name": "",
          "type": "uint256"
        }
      ],
      "stateMutability": "view",
      "type": "function"
    },
    {
      "inputs": [
        {
          "internalType": "uint8",
          "name": "_candidateId",
          "type": "uint8"
        }
      ],
      "name": "vote",
      "outputs": [],
      "stateMutability": "nonpayable",
      "type": "function"
    },
    {
      "inputs": [
        {
          "internalType": "address",
          "name": "",
          "type": "address"
        }
      ],
      "name": "voterState",
      "outputs": [
        {
          "internalType": "bool",
          "name": "hasVoted",
          "type": "bool"
        }
      ],
      "stateMutability": "view",
      "type": "function"
    }
  ],
  "bytecode": "0x60806040523480156200001157600080fd5b50600060405180604001604052806040518060400160405280600b81526020017f43616e64696461746f20310000000000000000000000000000000000000000008152508152602001600060ff1681525090806001815401808255809150506001900390600052602060002090600202016000909190919091506000820151816000019081620000a29190620004ae565b5060208201518160010160006101000a81548160ff021916908360ff1602179055505050600060405180604001604052806040518060400160405280600b81526020017f43616e64696461746f20320000000000000000000000000000000000000000008152508152602001600060ff1681525090806001815401808255809150506001900390600052602060002090600202016000909190919091506000820151816000019081620001569190620004ae565b5060208201518160010160006101000a81548160ff021916908360ff1602179055505050600060405180604001604052806040518060400160405280600b81526020017f43616e64696461746f20330000000000000000000000000000000000000000008152508152602001600060ff16815250908060018154018082558091505060019003906000526020600020906002020160009091909190915060008201518160000190816200020a9190620004ae565b5060208201518160010160006101000a81548160ff021916908360ff160217905550505062000595565b600081519050919050565b7f4e487b7100000000000000000000000000000000000000000000000000000000600052604160045260246000fd5b7f4e487b7100000000000000000000000000000000000000000000000000000000600052602260045260246000fd5b60006002820490506001821680620002b657607f821691505b602082108103620002cc57620002cb6200026e565b5b50919050565b60008190508160005260206000209050919050565b60006020601f8301049050919050565b600082821b905092915050565b600060088302620003367fffffffffffffffffffffffffffffffffffffffffffffffffffffffffffffffff82620002f7565b620003428683620002f7565b95508019841693508086168417925050509392505050565b6000819050919050565b6000819050919050565b60006200038f6200038962000383846200035a565b62000364565b6200035a565b9050919050565b6000819050919050565b620003ab836200036e565b620003c3620003ba8262000396565b84845462000304565b825550505050565b600090565b620003da620003cb565b620003e7818484620003a0565b505050565b5b818110156200040f5762000403600082620003d0565b600181019050620003ed565b5050565b601f8211156200045e576200042881620002d2565b6200043384620002e7565b8101602085101562000443578190505b6200045b6200045285620002e7565b830182620003ec565b50505b505050565b600082821c905092915050565b6000620004836000198460080262000463565b1980831691505092915050565b60006200049e838362000470565b9150826002028217905092915050565b620004b98262000234565b67ffffffffffffffff811115620004d557620004d46200023f565b5b620004e182546200029d565b620004ee82828562000413565b600060209050601f83116001811462000526576000841562000511578287015190505b6200051d858262000490565b8655506200058d565b601f1984166200053686620002d2565b60005b82811015620005605784890151825560018201915060208501945060208101905062000539565b868310156200058057848901516200057c601f89168262000470565b8355505b6001600288020188555050505b505050505050565b6108a780620005a56000396000f3fe608060405234801561001057600080fd5b50600436106100575760003560e01c80630d15fd771461005c57806330a563471461007a5780633477ee2e14610098578063b3f98adc146100c9578063ce0b50bd146100e5575b600080fd5b610064610115565b60405161007191906103fb565b60405180910390f35b61008261011b565b60405161008f91906103fb565b60405180910390f35b6100b260048036038101906100ad9190610447565b610127565b6040516100c0929190610520565b60405180910390f35b6100e360048036038101906100de919061057c565b6101f0565b005b6100ff60048036038101906100fa9190610607565b6103b7565b60405161010c919061064f565b60405180910390f35b60025481565b60008080549050905090565b6000818154811061013757600080fd5b906000526020600020906002020160009150905080600001805461015a90610699565b80601f016020809104026020016040519081016040528092919081815260200182805461018690610699565b80156101d35780601f106101a8576101008083540402835291602001916101d3565b820191906000526020600020905b8154815290600101906020018083116101b657829003601f168201915b5050505050908060010160009054906101000a900460ff16905082565b6000805490508160ff161061023a576040517f08c379a000000000000000000000000000000000000000000000000000000000815260040161023190610716565b60405180910390fd5b600160003373ffffffffffffffffffffffffffffffffffffffff1673ffffffffffffffffffffffffffffffffffffffff16815260200190815260200160002060000160009054906101000a900460ff16156102ca576040517f08c379a00000000000000000000000000000000000000000000000000000000081526004016102c190610782565b60405180910390fd5b604051806020016040528060011515815250600160003373ffffffffffffffffffffffffffffffffffffffff1673ffffffffffffffffffffffffffffffffffffffff16815260200190815260200160002060008201518160000160006101000a81548160ff02191690831515021790555090505060008160ff1681548110610355576103546107a2565b5b9060005260206000209060020201600101600081819054906101000a900460ff168092919061038390610800565b91906101000a81548160ff021916908360ff16021790555050600260008154809291906103af90610829565b919050555050565b60016020528060005260406000206000915090508060000160009054906101000a900460ff16905081565b6000819050919050565b6103f5816103e2565b82525050565b600060208201905061041060008301846103ec565b92915050565b600080fd5b610424816103e2565b811461042f57600080fd5b50565b6000813590506104418161041b565b92915050565b60006020828403121561045d5761045c610416565b5b600061046b84828501610432565b91505092915050565b600081519050919050565b600082825260208201905092915050565b60005b838110156104ae578082015181840152602081019050610493565b60008484015250505050565b6000601f19601f8301169050919050565b60006104d682610474565b6104e0818561047f565b93506104f0818560208601610490565b6104f9816104ba565b840191505092915050565b600060ff82169050919050565b61051a81610504565b82525050565b6000604082019050818103600083015261053a81856104cb565b90506105496020830184610511565b9392505050565b61055981610504565b811461056457600080fd5b50565b60008135905061057681610550565b92915050565b60006020828403121561059257610591610416565b5b60006105a084828501610567565b91505092915050565b600073ffffffffffffffffffffffffffffffffffffffff82169050919050565b60006105d4826105a9565b9050919050565b6105e4816105c9565b81146105ef57600080fd5b50565b600081359050610601816105db565b92915050565b60006020828403121561061d5761061c610416565b5b600061062b848285016105f2565b91505092915050565b60008115159050919050565b61064981610634565b82525050565b60006020820190506106646000830184610640565b92915050565b7f4e487b7100000000000000000000000000000000000000000000000000000000600052602260045260246000fd5b600060028204905060018216806106b157607f821691505b6020821081036106c4576106c361066a565b5b50919050565b7f496e76616c69642063616e646964617465204944000000000000000000000000600082015250565b600061070060148361047f565b915061070b826106ca565b602082019050919050565b6000602082019050818103600083015261072f816106f3565b9050919050565b7f596f75206861766520616c726561647920766f74656400000000000000000000600082015250565b600061076c60168361047f565b915061077782610736565b602082019050919050565b6000602082019050818103600083015261079b8161075f565b9050919050565b7f4e487b7100000000000000000000000000000000000000000000000000000000600052603260045260246000fd5b7f4e487b7100000000000000000000000000000000000000000000000000000000600052601160045260246000fd5b600061080b82610504565b915060ff820361081e5761081d6107d1565b5b600182019050919050565b6000610834826103e2565b91507fffffffffffffffffffffffffffffffffffffffffffffffffffffffffffffffff8203610866576108656107d1565b5b60018201905091905056fea264697066735822122052f5e31176080613dcbed002701449035fd5cf850daed073ba8ff07ae9995c3e64736f6c63430008130033",
  "linkReferences": {},
  "deployedLinkReferences": {}
}